:0C0000000C94C3070C9400000C9400004A
:10000C000C9400000C9400000C94BC090C94D009C6
:10001C000C94E4090C94030A0C9400000C9400005A
:10002C000C9400000C9400000C9400000C94000044
:10003C000C9400000C94430C0C9400000C940000E5
:10004C000C9400000C9400000C9400000C94000024
:10005C000C9400000C9400000C9400000C94000014
:10006C000C9400000C9400000C9400000C94000004
:10007C000C9400000C9400000C9400000C940000F4
:10008C003F065B4F666D7D277F6F7638795C7371A9
:10009C00395E771C44507C00000000000000004FCB
:1000AC0000000007000700147F147F14242A7F2A05
:1000BC0012231308646236495522500005030000D0
:1000CC00001C2241000041221C0014083E081408A8
:1000DC00083E0808005030000008080808080060B6
:1000EC0060000020100804023E5149453E00427F4A
:1000FC00400042615149462141454B311814127F51
:10010C001027454545393C4A4949300171090503D9
:10011C003649494936064949291E00363600000041
:10012C005636000008142241001414141414004113
:10013C002214080201510906324979413E7E1111FF
:10014C00117E7F494949363E414141227F4141223E
:10015C001C7F494949417F090909013E4149497AB6
:10016C007F0808087F00417F41002040413F017F0C
:10017C00081422417F404040407F020C027F7F04E4
:10018C0008107F3E4141413E7F090909063E41511D
:10019C00215E7F09192946264949493201017F010F
:1001AC00013F4040403F1F2040201F3F4038403F10
:1001BC00631408146307087008076151494543002C
:1001CC007F41410002040810200041417F000402DD
:1001DC0001020440404040400001020400205454FD
:1001EC0054787F4844443838444444203844444884
:1001FC007F3854545418087E0901020C5252523E56
:10020C007F0804047800047D00002040443D007FFA
:10021C001028440000417F40007C0418047C7C08BA
:10022C0004047838444444387C1414140808141416
:10023C00187C7C080404084854545420043F44405F
:10024C00203C4040207C1C2040201C3C4030403C4A
:10025C0044281028440C5050503C4464544C4400E6
:10026C000836410000007700000041360800080401
:10027C000810080000000000000000000000000052
:10028C00C0000000000000FFFF800000000007FF1E
:10029C00FFF0000000001FF001FC000000007F8058
:1002AC00003F00000000FC00000780000001F0008F
:1002BC000001C0000007E00000007000000FC0004B
:1002CC0000003800001F000000000C00003E000081
:1002DC0000000600007C0000000002000078000016
:1002EC000000010000F000000000008001E00000B0
:1002FC00000000C001E003800000004003C0078044
:10030C007E00006003800F007F80002007801E00AD
:10031C001FC0003007001C000FE0001007003C005D
:10032C0007E000100F00380007E000080E0078000E
:10033C000FE000080E0078001FC000081E007800B7
:10034C007F8000081E00F0007F00000C1E00F000F3
:10035C00000000041E00F000000000041C00F0006F
:10036C00000000041C00F000000000041C00F00061
:10037C00000000041C00F000000000041E00F0004F
:10038C00000000041E00F000000000041E00F0003D
:10039C007F00000C1E0078007FC000080E00780063
:1003AC001FE000080E0078000FE000080F003C0072
:1003BC0007E0000807003C0007E0001007801E0063
:1003CC000FE0001007800E001FC0003003800700F4
:1003DC007F80002003C003807E00006001E001806C
:1003EC000000004001E00000000000C000F0000030
:1003FC00000000800078000000000100007C00007C
:10040C0000000200003E000000000600001F00007B
:10041C0000000C00000F8000000038000007E00016
:10042C00000070000001F0000001C0000000FC00A2
:10043C000007800000003F00001E000000001FF0BD
:10044C0001FC0000000003FFFFE00000000000FFC3
:10045C00FF00000000000003E000000000000000AE
:10046C000000000000000000000000000000000080
:10047C000000000000000000000000000000000070
:10048C000000000000000000000000000000000060
:10049C000000000000000000000000000000000050
:10067C000000000000000000000000000000003F2F
:10068C00FC000000000003FFFFC0000000000FFC96
:10069C001FF0000000003F80003C00000000FE0046
:1006AC00000F00000001F000000180000007E000D6
:1006BC000000C000000F800000002000001F0000A0
:1006CC0000001000003C000000000800003C00008E
:1006DC0000000400007000000000020000F00000A8
:1006EC000000000001E000000000000001C00380D9
:1006FC000000008003C0078000000000038007801A
:10070C000F000040070007803FC000000700078073
:10071C007FE000200F0007807FE000000F000780C3
:10072C007FE000100E0007803FC000100E00078015
:10073C000F0000101E000780000000001C00078046
:10074C00000000001C000780000000081C0007804F
:10075C00000000081C000780000000081C00078037
:10076C00000000081C000780000000081C00078027
:10077C00000000081C000780000000081C00078017
:10078C00000000081C000780000000001C0007800F
:10079C00000000100E0007801FC000100E00078024
:1007AC007FE000100F0007807FE00000070007804B
:1007BC007FE00020070007803FC0002007800780F3
:1007CC001F800040038007800000004003C00780AA
:1007DC000000000001C003000000000000E0000069
:1007EC000000000000F00000000000000078000095
:1007FC0000000000003C000000000400001E00008F
:10080C0000000800000F0000000010000007C000EE
:10081C00000060000003E000000080000000F80011
:10082C000003000000007E00000E000000001FE02E
:10083C0000F80000000007FFFFE00000000000FFD0
:10084C00FF00000000000007C000000000000000D6
:10085C00000000000000000000000000000000008C
:10086C00000000000000000000000000000000007C
:10087C00000000000000000000000000000000006C
:10088C00000000000000000000000000000000005C
:100A7C000000000000000000000000000000000367
:100A8C0000000000000001FFFE00000000000FFF4E
:100A9C00FFC0000000003FC001F000000000FE009D
:100AAC00003C00000001F000000600000007E00020
:100ABC0000018000000F800000004000001F0000BB
:100ACC0000002000003C0000000010000078000036
:100ADC000000080000F000000000040001E000002D
:100AEC000000000001C000000000000003C0000076
:100AFC00180000000780000018000000070000002C
:100B0C00180000000F000000380000000F0000303B
:100B1C00380000400E0001FC300000001E0003FEF7
:100B2C00700000201C0803FE600000001C0E03FE79
:100B3C00E00000003C0701FDC00000003C0780FB0A
:100B4C00800000103803C003000000103803C00000
:100B5C00000000003803C000000000003803E00073
:100B6C00000000003803E000000000003803E00043
:100B7C00000000003803C000000000003803C00073
:100B8C000000000038078002000000103C0780FBCA
:100B9C00800000101C0F01FFC00000001C0C03FEA5
:100BAC00E00000001C0003FEE00000001E0003FE3D
:100BBC00700000200E0001FC300000000E00003020
:100BCC00380000400F000000380000000700000053
:100BDC0018000000078000001800000003C000008F
:100BEC001800000001C000000000000001E000003F
:100BFC000000000000F00000000000000078000081
:100C0C0000000800003C000000001000001E000066
:100C1C0000002000000F8000000040000007C00012
:100C2C00000180000001F000000200000000FE0046
:100C3C00001C000000003F8000F0000000000FFFCF
:100C4C00FFC00000000001FFFE00000000000007D4
:100C5C008000000000000000000000000000000008
:100C6C000000000000000000000000000000000078
:100C7C000000000000000000000000000000000068
:100C8C000000000000000000000000000000000058
:100C9C000000000000000000000000000000000048
:100E7C00000000001027E80364000A0001000010C5
:100E8C000001100001000000000000000000000044
:100E9C0079000100477265656E202025642073651A
:100EAC0063000D0052656420202564207365630087
:100EBC002532640047616A616E67004C696D697424
:100ECC002036304B6D00535452454554002D3E5343
:100EDC00696E74616E6A696E005E446F6E677365ED
:100EEC00646165003C2D48616E62617464616500EB
:100EFC004C696D69742035304B6D002D3E446F6E1E
:100F0C00677365646165005E48616E6261746461FB
:100F1C0065003C2D47616A616E67004C696D6974B0
:100F2C002038304B6D002D3E48616E6261746461F7
:100F3C0065005E47616A616E67003C2D53696E7493
:100F4C00616E6A696E002D3E47616A616E67005E74
:100F5C0053696E74616E6A696E003C2D446F6E67E6
:100F6C007365646165000A000400920E01000205BD
:100F7C009C0E01003E059E0E0000F894EE27ECBB83
:100F8C00F1E0F5BFE5BFE0936C008DE0A2E0BB277C
:100F9C00ED938A95E9F780E090E1A0E0B1E0ED9364
:100FAC000197E9F7E2E7FFE085919591009761F0F1
:100FBC00A591B59105901590BF01F00105900D928A
:100FCC000197E1F7FB01F0CF8BBFEFEFEDBFE0E155
:100FDC00EEBFC0E0D5E00C94770CE1E0F0E0E093DC
:100FEC003405F0933505A0913405B09135051D9766
:100FFC007CF40E94690FEC5FFA4FA0E0A0830E9482
:10100C00690FEF5EFA4FA0E0A0830E946E0FEBCF4A
:10101C000895AA93E2DFA981AE33D8F00E94760F2F
:10102C00E0930B05E1E0E09310050E947A0F0E941B
:10103C007E0FE0931C05A981A03430F0E1E0E09331
:10104C000705E093080503C0E1E0E0930605C6D070
:10105C001FC0A981A130E0F0E1E0E09305050E94FA
:10106C00760FE0930F050E947A0FE0931605E1E0EE
:10107C00E0931805E0931C05A981A33028F0E093B8
:10108C000D05E0930E0503C0E1E0E0930C05A6D03E
:10109C00A881AE33E0F0E1E00E947E0FE0931D05E5
:1010AC00E1E0E09305050E94760FE0930B05E1E08B
:1010BC00E0930F05A881A03428F0E0931405E09389
:1010CC00150503C0E1E0E093130588D01FC0A8818B
:1010DC00A130E0F0E1E0E0930505E0930905E09331
:1010EC000B05E0930F05E09317050E947A0FE09330
:1010FC001C05A881A33030F0E1E0E0931A05E093E1
:10110C001B0503C0E1E0E093190568D03BC2E0E0A9
:10111C00E0933205E09333050E94840F12970CF58F
:10112C00E0E0E0933405E0933505A0913405B091EF
:10113C00350515979CF40E94840FEAE00E94291152
:10114C00E25EFA4FDF010E94690F0E94890FE0E016
:10115C00F0E0ED93FC930E946E0FE7CF0E948E0F90
:10116C00DBCF0895D4DF0E94960F0E94840F1D9749
:10117C0094F40E949D0FEC5FFA4FA081A13041F4D2
:10118C00E0913605F0913705AEE1B5E00E94A20F73
:10119C000E948E0FEACFE0E0E0933605E09337052E
:1011AC000E94960F0E94840F1D9794F40E949D0F2D
:1011BC00EF5EFA4FA081A13041F4A8E2B5E0E091D6
:1011CC003605F09137050E94A20F0E948E0FEACFD0
:1011DC00E0E0E0933605E09337050895E0E0E09316
:1011EC003205E09333050E94840F1597E4F40E94B6
:1011FC009D0F309711F4DF9ADF980E949D0FAEE19E
:10120C00B5E00E94890F6C91A8E2B5E00E949D0F99
:10121C000E94890FEC91A0E1EA02F001E60FE2BB1B
:10122C000E948E0FE0CF0895A0910205A13050F1DD
:10123C00E0910205E150E0930205A0910205AD3367
:10124C0050F0E0EAFEE0FA93EA93E0910205F0E058
:10125C00FC970E94B10FA0910205AD3358F4E0EB5E
:10126C00FEE0FA93EA93E0910205F0E0E858FF4FB4
:10127C000E94B10FE0910205E03019F4E9E7E09328
:10128C00030523C0A0910305A13038F1E0910305BB
:10129C00E150E0930305E0EBFEE0FA93EA93E09172
:1012AC0003050E94C20F0E94310F2696EEEAFEE063
:1012BC00FA93EA9380E00E94310F2296E0910305A5
:1012CC00E03019F4E9E7E0930205E0910205EA93B6
:1012DC00A09103059EDE46DF08950895E0E0EBB98A
:1012EC00E8E9EAB9E6E0E0939500E0E0E0939000ED
:1012FC00EFE2E9B90895AA93E0913805EF5FE09326
:10130C003805A0913805A33018F0E1E0E0933805DA
:10131C00E0913805F0E0E130A0E0FA0781F4E0E07C
:10132C00E0936200AA81B0E0EAE0F0E00E94421192
:10133C00E457FF4FE491E095E5BBE98113C0E2303F
:10134C00A0E0FA0789F4E0E0E0936200AA81BB27F1
:10135C00EAE0F0E00E944711E457FF4FE491E0957A
:10136C00E5BBE881E09362000C94930D0E94C90FD9
:10137C00EF7EE9BF0C990AC00E94D80F0C9906C0E9
:10138C000E94DC0F0C9902C0E1E0DE2EE9B7E061AF
:10139C00E9BF99C20E94C90FEF7DE9BF0D990AC040
:1013AC000E94D80F0D9906C00E94DC0F0D9902C047
:1013BC00E1E0CE2EE9B7E062E9BF85C20E94C90F19
:1013CC00EF7BE9BF0E9915C00E94D80F0E9911C082
:1013DC000E94DC0F0E990DC0E1E0E0930005F501D1
:1013EC0031965F01E3E0F0E0EA15FB0511F4AA2465
:1013FC00BB24E9B7E064E9BF66C20E94C90FEF776E
:10140C00E9BF0F990BC00E94D80F0F9907C00E941B
:10141C00DC0F0F9903C0E1E0E0930105E9B7E06848
:10142C00E9BF51C2AA930E94721110E000E020E0C3
:10143C0030E0DB9ADC9810E01034F8F400E008306F
:10144C00D0F40E94E00F21F4F901E058FD4F0DC0DB
:10145C00AC81A23021F4F901E058F94F06C0AC81FF
:10146C00A33029F4F901E058F54FA4918DD02F5FEA
:10147C003F4F0F5FE4CF1F5FDFCFDB98DC9A10E0AC
:10148C001034F8F400E00830D0F40E94E00F21F49E
:10149C00F901E058FD4F0DC0AC81A23021F4F901E7
:1014AC00E058F94F06C0AC81A33029F4F901E0589B
:1014BC00F54FA49169D02F5F3F4F0F5FE4CF1F5FB3
:1014CC00DFCF0E9479110C94CD0DBA93AA93DB9ABD
:1014DC00DC98E881F981E491E03089F0EB81EA93C2
:1014EC00EB81EA93EA81FB81A4910AD0E881F9812E
:1014FC003196E883F983EB81EF5FEB83EACF29C068
:10150C00AA931A93AB81AA3018F0DB98DC9A02C02C
:10151C00DB9ADC9814E01930D8F4EB81A6E0EA02EF
:10152C00F001E10FEA93AB8128D0E981F0E0B097AC
:10153C00A5E0B0E00E942111EC55FF4FDF01E12F37
:10154C00F0E03497EA0FFB1FA4911ED01F5FE3CF8E
:10155C00188124960895AA93D898D998E881E064C4
:10156C00E8BB20D00C94890DAA93D898D998E8811F
:10157C00E86BE8BB17D00C94890DAA93A981EBDF1B
:10158C00A881F2DF22960895AA93D89AD998E88177
:10159C00E8BB08D00C94890DD998D898EFE3E8BB38
:1015AC0001D00895DA9ADA980895EFEFE7BBEABB19
:1015BC00DB9A0895F1DFF9DFE8E0E0933D05EEE119
:1015CC00E0933C05E0933B0508950E94E90FE09100
:1015DC003D050E94C20F0E94F20FD9F40E94F90F30
:1015EC00E0E0F0E00E941B11E02139F00E940110B4
:1015FC00A0E20E940610A0E208C00E940110A09177
:10160C003F050E940610A09140057ADF0E940D1044
:10161C000AC00E940110A0913F050E9406100E9472
:10162C0014100E940D100E94E90FE0913C050E94DD
:10163C00C20F0E94F20FD9F40E94F90FE1E0F0E022
:10164C000E941B11E02139F00E941810A0E20E94A8
:10165C001D10A0E208C00E941810A0913F050E9426
:10166C001D10A09140054CDF0E9424100AC00E945E
:10167C001810A0913F050E941D100E9414100E948A
:10168C0024100E94E90FE0913B050E94C20F0E94BA
:10169C00F20FC9F40E94F90FE2E0F0E00E941B1176
:1016AC00E02139F00E942B10A0E20E943010A0E241
:1016BC0008C00E942B10A0913F050E943010A091F1
:1016CC0040051EDF08C00E942B10A0913F050E9410
:1016DC0030100E9414100895E0E0E0933905E09377
:1016EC003A05E0913E05F0E0E130A0E0FA0751F553
:1016FC000E94371011F0A1E095DE0E94421011F00B
:10170C00A2E004C00E944D1011F0A3E08BDE0E94F9
:10171C006210A0ECBEE00E946910E3E0EA93A7EC33
:10172C00BEE00E9469100E946E10A9EDBEE00E94FE
:10173C006910E5E0EA93A5EEBEE00E947910A0EFF7
:10174C00BEE099C0E230A0E0FA07B1F5A0913D05EA
:10175C00EAE00E948010E2E10E940711E02111F002
:10176C00A1E060DE0E94421011F0A2E009C0A0913D
:10177C003D05E7E00E9480100E94861011F0A3E066
:10178C0051DE0E946210ABEDBEE00E946910E3E0F6
:10179C00EA93ACEFBEE00E9469100E946E10A7E0C5
:1017AC00BFE00E946910E5E0EA93A3E1BFE00E946C
:1017BC007910AEE1BFE05FC0E330A0E0FA0791F52D
:1017CC000E94371011F0A1E02DDEA0913D05EBE059
:1017DC000E948010EDE00E940711E02111F0A2E0C0
:1017EC0009C0A0913D05E7E00E9480100E94861080
:1017FC0011F0A3E017DE0E946210A6EEBEE00E947C
:10180C0069100E9497100E946E10A2E3BFE00E9424
:10181C006910E5E0EA93AEE3BFE00E947910A6E41C
:10182C00BFE029C0E430A0E0FA0731F50E94371080
:10183C0011F0A1E0F7DD0E94421011F0A2E004C00B
:10184C000E944D1011F0A3E0EDDD0E946210A2EF9A
:10185C00BEE00E9469100E9497100E946E10A2E5D3
:10186C00BFE00E946910E5E0EA93ABE5BFE00E949F
:10187C007910A6E6BFE029DE08950A921A92FA9230
:10188C006A937A938A939A93AA93BA93EA93FA9364
:10189C00EFB7EA93F20131962F01E8EEF3E04E1622
:1018AC005F067CF019DFE0910005E03029F4E0914F
:1018BC003B05EF5FE0933B058094909444245524C2
:1018CC00B3DCE2E1E2BFE991EFBFF991E991B991A3
:1018DC00A9919991899179916991F99019900990AF
:1018EC001895E3E0E3BFE0E8E2BFE1E0E7BFEAEA36
:1018FC00EABFE0EFE9BFEFEFE1BBEFE0E2B9EFEFFA
:10190C00E4BBE0936100E0E8EFBFDE9AE7DC8CDC3F
:10191C0051DEA1E0B0E00E94F010A9E3B5E00E9416
:10192C009C10A0910205AD3340F0E0910205EC5300
:10193C00EA93E4E0EA93A8E01DC0A0910205A1306F
:10194C0038F0E0910205EA93E0E1EA93A0E212C0DC
:10195C00A0910305AD3340F0E0910305EC53EA93FD
:10196C00E0E4EA93A0E806C0E0910305EA93E1E025
:10197C00EA93A2E0C0DCE1E0ED15B9F5DD24A0911D
:10198C000005A13031F5F501309739F40E94A21011
:10199C0019F4E0E0E0933D051BC0E130A0E0FA074C
:1019AC0039F40E94AB1019F4E0E0E0933C0510C050
:1019BC00E230A0E0FA0761F4E0913B05EF5FE093C1
:1019CC003B05A0913B05AC3319F4E0E0E0933B05FB
:1019DC000CC0E0913E05EF5FE0933E05A0913E0503
:1019EC00A53019F4E1E0E0933E05E1E0EC1509F0D7
:1019FC0067C0CC24A0910005A13091F5F50130977A
:101A0C0069F4E0913D05E150E0933D05A0913D0561
:101A1C00A83119F4E0E0E0933D0521C0E130A0E0ED
:101A2C00FA0769F4E0913C05E150E0933C05A09184
:101A3C003C05AC3319F4E0E0E0933C0510C0E23017
:101A4C00A0E0FA0761F4E0913B05E150E0933B051F
:101A5C00A0913B05AC3319F4E0E0E0933B0530C0BA
:101A6C00F30131963F01E4E0F0E0E615F70511F4DF
:101A7C0066247724062C072819F4E8E70E94B41092
:101A8C00E1E0F0E0E615F70519F4ECE30E94B41080
:101A9C00E2E0F0E0E615F70539F4E0E0E09302054A
:101AAC00E8E7E0930305C0DBE3E0F0E0E615F705BB
:101ABC0039F4E0E0E0930205ECE3E0930305B4DBDA
:101ACC00A0910105A13029F4E0E0E0930105E09339
:101ADC000005A0913B05AC3378F0E0E0E0933B05CA
:101AEC000E94AB1048F0E0E0E0933C050E94A2108D
:101AFC0018F0E0E0E0933D050CCFFFCFAA935D9B7F
:101B0C00FECFE881ECB921960895BA93AA93AA81E5
:101B1C00F5DFA881B9810E949C1023960895BA9391
:101B2C00AA931A930A93AA81BB8112960E946311FD
:101B3C00309729F1AA81BB8114960E9463118F0101
:101B4C00309761F00230E0E01E0780F0F801319729
:101B5C008F01AA81BB811496ED93FC93AA81BB8162
:101B6C0012960E949C103197AC81A083AA81BB81F4
:101B7C000E946311FF2312F00E949C1006C0AA81E0
:101B8C00BB81EFEFFFEFED93FC9319810881259654
:101B9C000895BA93AA9326970E94701110E0AC8511
:101BAC00BD85E0E0F0E0ED93FC93EA89FB8931968A
:101BBC00EA8BFB8B3197E4912E2FE03009F415C1A1
:101BCC00E12FE03039F4253211F411E002C00E940B
:101BDC00BB100AC1E130A9F4253219F40E94BB10E4
:101BEC0002C112E040E000E02D3211F401E0FCC033
:101BFC002B3211F44BE2F8C0203211F440E2F4C065
:101C0C0002C0E23039F450E013E0203311F40068E4
:101C1C00EBC003C0E33009F0E7C0203310F02A33E7
:101C2C0008F007C0AAE05A9F502DE22FE0535E0F38
:101C3C00DBC0E22FE33649F40E94C210E889F9892F
:101C4C00A481AA930E94C810CEC0E33741F40E942D
:101C5C00C2100E94CE100E94500F1E2F0AC0E037F7
:101C6C0061F40E94C2100E94CE100E945C0F1E2FC5
:101C7C00086002600F7730E034C0E43611F0E936CA
:101C8C0011F4046002C0E53731F4E0E8FEE0EE83C5
:101C9C00FF8315E00CC0E83511F4086003C0E83789
:101CAC0009F0A1C0EAE8FEE0EE83FF8314E002FF36
:101CBC0014C00E94C2100E94D810AB85AA233AF41B
:101CCC00EA85FB850E94FE10EA87FB874DE24030D7
:101CDC0011F01F5F01C00B7F04C00E94C2100E9454
:101CEC00D81000FD11C0151778F407FF08C002FFCB
:101CFC0004C00B7F242F115001C020E301C020E24F
:101D0C000E94BB105150EFCF312F01FF17C0303064
:101D1C00A1F003FF06C0EE81FF812591EE83FF83C6
:101D2C0005C0AE81BF812D91AE83BF830E94BB10D5
:101D3C00503009F051503150EACF4BC020E3EE81C6
:101D4C00FF810E946711E887F987EE81FF81329647
:101D5C00EE83FF83E885F985AA85BB85AE17BF079F
:101D6C0050F02F5FA885B985EA85FB85EA1BFB0B34
:101D7C00EA87FB87EFCF2A3328F003FF02C0295FE5
:101D8C0001C0295D04FD1AC0213320F4A885B98552
:101D9C00119709F409C0531710F000FF01C013C0CC
:101DAC0020E207FF0BC020E3006102FF07C00B7F9E
:101DBC004A930E94C810503009F051500E94BB1039
:101DCC00503009F051503150A885B985129708F060
:101DDC00B5CF00FF08C0503031F05150E0E2EA932B
:101DEC000E94C810F8CF10E0E0CEAC85BD850E94F3
:101DFC0063110E94771164960895FF92F82E26972E
:101E0C000E9472110E94E010309719F4EFEFFFEF6F
:101E1C001DC0DE0116960E94FA108D010E94E01082
:101E2C00EE83FF83E0E0E887E987DE011A960E94E3
:101E3C00E710E5E9FDE0FA93EA93DE011A96A9DED4
:101E4C009F01AE81BF81E0E0EC93F9010E94791112
:101E5C002A96FF900895FF92F82E26971A930A93CC
:101E6C00DE0114960E94FA108D01E0E0EC83ED8304
:101E7C00EE83EF83DE0118960E94E710EBE8FDE09D
:101E8C00FA93EA93DE01189684DE1981088128966C
:101E9C00FF900895BA93AA93A991B991EE27FF27C1
:101EAC006D91662311F03196FBCF0895BA93AA93E6
:101EBC00AA27BB27E991F9910590002011F0119602
:101ECC00FBCFFD010895E0913405F091350508959F
:101EDC00A4E3B5E0ED91FD913196FE93EE93089558
:101EEC00E1E0E0930A050895E1E0E093120508951E
:101EFC00E0931705E1E0E09318050895A0913205F1
:101F0C00B09133050895EE0FFF1FAE0FBF1F08955C
:101F1C00A2E3B5E0ED91FD913196FE93EE93089519
:101F2C00E1E0F0E0E0933205F09333050895E091A1
:101F3C003205F09133050895EE0FFF1FEA0FFB1FDA
:101F4C00DDDFA083B183A6E3B5E0ED91FD91319681
:101F5C00FE93EE9308950E9402110E946B1184E08F
:101F6C000E94310F2696EEEAFEE0FA93EA9380E0A7
:101F7C000E94310F22960895FF27662777270E942B
:101F8C006B1184E008950A921A92FA926A937A93EA
:101F9C008A939A93AA93BA93EA93FA93EFB7EA9334
:101FAC00E9B70895A5E0B0E00C94F010A2E0B0E021
:101FBC000C94F0101A93E7E0E01BAE2F0E94C30ABA
:101FCC00AC81A1300895EFE3F5E0FA93EA93ECEBE2
:101FDC00FEE0FA93EA9308950E94030F2896A091CD
:101FEC000005A1300895D401E0E0F0E00E941B113F
:101FFC000E2ED5010895ECE0EA93E0E0EA93089503
:10200C000E94860AEDE0EA93E0E0EA930895EEE0A0
:10201C00EA93E0E0EA93AAE30C94860AA0914005C7
:10202C000C94860AEFE0EA93E0E0EA9308950E94AC
:10203C00860AE0E1EA93E0E0EA930895E1E1EA93AD
:10204C00E0E0EA93AAE30C94860AE2E1EA93E0E08A
:10205C00EA9308950E94860AE3E1EA93E0E0EA93AA
:10206C000895A0913D05E9E00E940C110E2EE2E1CD
:10207C000E940711E0210895A0913D05ECE00E941B
:10208C000C110E2EEEE00E940711E0210895A09194
:10209C003D05E8E00E940C110E2EE9E00E941111A2
:1020AC00E0211E2EE2E10E9416110E2EE4E10E94A8
:1020BC000711E021E12908950E94EB0AEAE0EA9376
:1020CC00E1E0EA9308950E946B0AEAE0EA9308952E
:1020DC00E2E0EA93A2EDBEE00E946B0AE9E0EA932B
:1020EC00E4E0EA9308950E946B0AE9E0EA93E6E0E3
:1020FC00EA9308950E940C110E2EA0913D050895AF
:10210C00E9E00E941111E0211E2EA0913D05E2E1B3
:10211C000E9416110E2EE4E10E940711E021E12924
:10212C000895E3E0EA93A7E2BFE0CDCFED91FD91F6
:10213C003196FE93EE930895E0913D05EF5FE093A9
:10214C003D05A0913D05A8310895E0913C05EF5F58
:10215C00E0933C05A0913C05AC330895E093020557
:10216C00E0E0E09303050C941A092A93AD85BE8533
:10217C00EF85F88909950895E889F9893497E88BF2
:10218C00F98B0895AD85BE85EF85F889099508957D
:10219C00A889B98914960E946311EE83FF83AE81DE
:1021AC00BF810895A889B98914960E946311EA87A2
:1021BC00FB870895DE011C960E94FA100E946311A1
:1021CC0008950E94FA100E946311FA93EA931A93ED
:1021DC000A930895109639F080EA9FE00197F1F781
:1021EC00A8951197C9F708950024AF0DB01D089557
:1021FC00F195E195F04008956F2F660F660B762FE1
:10220C000895EA17E1E008F4EE270895AE17E1E02F
:10221C0008F4EE270895AE17E1E008F0EE270895D4
:10222C00EA17E1E008F0EE270895EA17FB07E1E072
:10223C0009F0EE270895FA9FF02DEB9FF00DEA9F21
:10224C00E02DF10D08956E2F6A9FF0016B9FF00D3C
:10225C0008950024112490E1AA0FBB1F001C111C2F
:10226C000E1A1F0A18F40E0E1F1E01C0A1609A95BB
:10227C0099F7FD01D001089512D0EBDF0EF4B8DF11
:10228C000895E894B7FF04C0A095B0951196689492
:10229C00F7FDAEDFDEDFFD010EF4AADF0895E89452
:1022AC00F7FF02C0A5DF6894B7FF06C0A095B095F4
:1022BC00119600F8039400FA0895ED91FC91119792
:1022CC0008950590F491E02D08957A936A93FA930A
:1022DC00EA9308955A934A933A932A931A930A933A
:1022EC0008955D814C813B812A8119810881089573
:00000001FF
